:020000040810E2
:10000000000303245D041008C906110861ED1008FF
:1000100031001108C11E1008B93711080000000096
:10002000000000000000000000000000411811085E
:10003000C92A10080000000021141108A91C110889
:100040007704100877041008770410087704100864
:100050007704100877041008770410087704100854
:10006000770410087704100877041008091F100897
:10007000191F1008291F1008391F1008491F1008E0
:10008000591F1008691F100877041008770410081A
:100090007704100877041008770410087704100814
:1000A0007704100877041008770410087704100804
:1000B00077041008B11F1108C11F11087704100838
:1000C00077041008770410087704100877041008E4
:1000D000770410087137110889371108A137110802
:1000E0007704100877041008000000007704100857
:1000F000012011087704100877041008791F1008F0
:1001000077041008770410087704100877041008A3
:10011000F124110809251108D91F1108F11F110830
:10012000891F1008991F1008A91F1008B91F10086F
:10013000C91F100877041008770410087704100806
:1001400000000000000000000000000000000000AF
:100150007704100877041008770410087704100853
:100160007704100877041008770410087704100843
:1001700077041008770410087704100800000000C6
:100180007704100877041008212511087704100857
:100190007704100877041008770410087704100813
:1001A0007704100877041008770410087704100803
:1001B00077041008770410087704100877041008F3
:1001C00077041008770410087704100877041008E3
:1001D00077041008770410087704100877041008D3
:1001E00077041008770410087704100877041008C3
:1001F00077041008770410087704100877041008B3
:1002000077041008770410087704100877041008A2
:100210007704100877041008A11F1108770410084C
:100220007704100877041008770410080000000015
:100230007704100877041008000000007704100805
:100240007704100877041008770410087704100862
:100250007704100877041008770410087704100852
:100260007704100877041008770410087704100842
:1002700077041008770410087704100800000000C5
:1002800077041008770410087704100800000000B5
:10029000000000007704100800F002F800F0B4F845
:1002A0000AA090E8000C82448344AAF10107DA45D1
:1002B00001D100F0A9F8AFF2090EBAE80F0013F06F
:1002C000010F18BFFB1A43F001031847E837060077
:1002D000083806000A444FF0000C10F8013B13F0F8
:1002E000070408BF10F8014B1D1108BF10F8015B8F
:1002F000641E05D010F8016B641E01F8016BF9D182
:1003000013F0080F1EBF10F8014BAD1C0C1B09D1D8
:100310006D1E58BF01F801CBFAD505E014F8016B4A
:1003200001F8016B6D1EF9D59142D6D370470000DC
:100330000023002400250026103A28BF78C1FBD8EE
:10034000520728BF30C148BF0B6070476E2900F0CC
:100350009F82702900F0F583662922F0E2876529E3
:1003600022F0DF87672922F0DC87612922F0DB8712
:1003700003681B0A28BF41F08001692900F04C8204
:10038000642900F04982752900F046826F2900F047
:100390008383782900F0C183E92900F01D83E429D3
:1003A00000F01A83F52900F01783EF2900F080830D
:1003B000F82900F0C0830368DB0928BF41F0800101
:1003C000632901F0F780732901F0FC80E32901F033
:1003D0000781F32901F00C81002070471FB522F03E
:1003E00093FF00F014F901F061F9040000200021EE
:1003F00022F074FF401C60600020002122F058FFB2
:10040000E0601FBD10B510BD01F022F91146FFF7E5
:10041000E5FF16F005F801F0FFF903B4FFF7F2FF6E
:1004200003BC15F02DFA00000B49D1F800C04A6852
:100430005CF8043B1068184442F8040B8C4528BF54
:10044000A1F1DC0C8A4228BFA1F1DC02C1F800C096
:100450004A6020F0004070476CA60024094880479D
:1004600009480047FEE7FEE7FEE7FEE7FEE7FEE796
:10047000FEE7FEE7FEE7FEE704480549054A064BAE
:1004800070470000411E11089902100800FD022467
:100490000003032400FF022400FF022453EA020C9D
:1004A00000F069802DE9F04B4FF00006002B1FBFD4
:1004B000B3FA83F503FA05F424FA05F65E4012BF99
:1004C0001643B2FA82F502FA05F4C5F120051EBF03
:1004D00022FA05FC44EA0C04203556EA044C4FEAA3
:1004E000144418BF641C4FF000084FF000099042FC
:1004F00071EB030C39D3002919BFB1FA81F701FA66
:1005000007F6B0FA80F700FA07F6C7F120071EBF1A
:1005100020FA07FC46EA0C062037B6FBF4FCA7EBF2
:100520000507103F07F01F0BCBF120062CFA06F64B
:100530000CFA0BFB44BFB3460026202FA4BF5E4637
:100540004FF0000B5BEA060C08BF4FF0010B19EBF4
:100550000B0948EB0608ABFB027C06FB02CC0BFB4D
:1005600003CCC01B71EB0C01C1E70B4602464146B0
:100570004846BDE8F08B13B5084318BF4FF0FF3075
:100580000146AFF30080BDE81C4070470FB404493A
:1005900010B503AA029800F0AFF910BC5DF814FB87
:1005A000F0AD02240FB41CB50C0007AA009007D0D0
:1005B0004142A14202D32044401E01E04FF0FF30EF
:1005C000074B7B4469460190069800F07AF90021B8
:1005D000002C01D0009A11701CBC5DF814FB0000C7
:1005E000230300000B4910B5A1F17C020A4CC2E9BB
:1005F0003712372106E000EB104342F82130074B59
:1006000000FB03400B1EA1F10101F4DC10BD012031
:10061000E8E700000CA60024E119D666CD0D010024
:1006200010B5431C02E010F8011B71B18107FAD12B
:100630004FF0013202C88C1A8C4314EAC211F9D06F
:10064000C01A0A0603D0C01E10BDC01A10BD0A048D
:1006500001D0801E10BD0902FCD0401E10BD032A2F
:1006600040F2308010F0030C00F0158011F8013BCF
:10067000BCF1020F624498BF11F801CB00F8013BB6
:1006800038BF11F8013BA2F1040298BF00F801CB7A
:1006900038BF00F8013B11F0030300F02183083A52
:1006A000C0F0088051F8043B083A51F804CBA0E8A8
:1006B0000810F5E7121D5CBF51F8043B40F8043BFD
:1006C000AFF30080D20724BF11F8013B11F801CB32
:1006D00048BF11F8012B24BF00F8013B00F801CB03
:1006E00048BF00F8012B70474FF0000200B51346D9
:1006F00094469646203922BFA0E80C50A0E80C5042
:10070000B1F12001BFF4F7AF090728BFA0E80C50F2
:1007100048BF0CC05DF804EB890028BF40F8042BEB
:1007200008BF704748BF20F8022B11F0804F18BF58
:1007300000F8012B704770477047704710B500F004
:1007400001FB006810BD10B5044600F0FBFA046020
:1007500010BD70B5044685690068C10601D5302614
:1007600000E02026C00707D070BDD4E90121304643
:100770009047206A401C20626D1EF6D570BD70B592
:10078000044685690078C00707D170BDD4E901210E
:1007900020209047206A401C20626D1EF6D570BD57
:1007A00009684A0501D540B27047C905FCD500B2B9
:1007B000704709684A0501D5C0B27047C905FCD524
:1007C00080B2704770B50C460546012A05D02878DE
:1007D000800600D5EA69002302E0012305E05B1CE6
:1007E000934202D2E05C0028F9D1A869E618C01A49
:1007F000A861286A184428622846FFF7AAFF04E087
:10080000D5E9012114F8010B9047B442F8D32846EA
:10081000FFF7B5FF70BD00002DE9F041064600244A
:1008200010687529314616A510D0FFF7B9FF0028CA
:1008300002DA404213A507E031688A0701D512A504
:1008400002E0490704D511A5012401E0FFF7B1FF3B
:1008500000210A2206F1240709E0B0FBF2FCB0FBFC
:10086000F2F302FB1C00303078541846491C002873
:10087000F3D123462A463046BDE8F04100F0ABBA3A
:10088000000000002D0000002B00000020000000F0
:1008900011680268006A530501D508700AE0D305A3
:1008A00001D5088006E0130603D5C217C1E900028E
:1008B00000E008600120704701694A1C0261087865
:1008C000704700B58FB0CDE9013100210591054990
:1008D0007944CDE903101146684600F03DF90FB0A8
:1008E00000BD0000E5FFFFFFD1E900239A4202D2DC
:1008F000531C0B6010707047074B70B50D467B445E
:10090000FFF7DFFF0446284600F076FE10B14FF0F7
:10091000FF3070BD204670BD475901002DE9FF5FD3
:1009200015468A460446DFF8AC80F8440027D8E92B
:1009300000103E46CDE9001010E03AF816106A4665
:1009400002A800F05DFE411C07D02178890603D57E
:10095000E269391891420DD80744761C2078800648
:1009600002D5E069B84205DDAE42E6DB3AF8160092
:100970000028E2D1A069C01BA0612046FFF7E9FE74
:10098000D8E90010CDE90010002017E03AF818105F
:100990006A4602A800F034FEB0F1FF3F81460BD05A
:1009A00000250DF1080B05E0D4E901211BF8050035
:1009B00090476D1C4D45F7D308F10100B0428046C9
:1009C000E4DB206A384420622046FFF7D8FEBDE809
:1009D000FF9F0000FE2902002DE9F0418046D21D54
:1009E00022F007020025D2E90002F52915A614D04D
:1009F000011E72F1000106DA0023D0EB030063EB65
:100A0000020211A608E0D8F800108B0701D50FA646
:100A100002E0490701D50EA601251146002408F180
:100A2000240704E000F092F930323A55641C50EA91
:100A30000102F7D12B46324621464046BDE8F0413F
:100A400000F0C9B9000000002D0000002B000000DC
:100A50002000000030B4002100F1240408E002F07E
:100A60000705D208303542EA4372DB086554491C59
:100A700052EA0305F3D10468002310A2250708D524
:100A800004F020040C4304D0C46901230CA2641EAA
:100A9000C46130BC00F09FB910B50446214610680F
:100AA000FFF787FE02462046BDE810400023D1E74D
:100AB000D21D22F00701D1E90023CBE7000000009E
:100AC00030000000F0B40D460188090502D5214C24
:100AD0007C4402E01F4C7C440E34002100F12406CB
:100AE00008E002F00F071209E75D42EA03721B09F2
:100AF0007754491C52EA0307F3D102780023120706
:100B000004D5702D06D009B1022311342246F0BC61
:100B100000F061B901231034F8E770B504460D46C2
:100B200021461068FFF745FE024629462046BDE8EB
:100B300070400023C6E7D21D22F00703D3E900234B
:100B4000C0E70368126843F0200303600823C36111
:100B50000023B7E7602802002DE9F05F89460446CC
:100B60004FF0000ADFF874B1FB44C0F820A0204623
:100B7000E1688847002874D0252806D0D4E90121EF
:100B80009047206A401C2062F1E700265F4620461D
:100B9000E16888472028054607DB312D05D2781902
:100BA00010F8200C08B10643F1E7B00701D526F094
:100BB0000406C4F81CA00027C4F818A02A2D09D0E8
:100BC000284622F059FB38B304EB8708303DC8F8BB
:100BD000185019E059F8041B204604EB8702916174
:100BE000E1688847012F054618D1E069002820DA1E
:100BF00026F020061DE0D8F8180000EB800005EB79
:100C000040003038C8F818002046E168884705469B
:100C100022F032FB0028EED1012F0AD02E2D08D170
:100C20002046E16888477F1C0546022F46F02006D3
:100C3000C4DBA069002803DA404246F00106A06147
:100C4000F00701D026F010066C2D0BD0682D09D0CE
:100C50004C2D39D06A2D35D0742D35D07A2D33D026
:100C600016E038E0E1682F4620468847B84205463E
:100C700009D16C2F26D04FF48060E16806432046EE
:100C80008847054604E06C2F1AD04FF48070064365
:100C90000DB3A5F14100192802D8203546F40066AD
:100CA0004A462946204626604E46FFF74FFB80B154
:100CB00001280BD0F61D26F0070000F1080956E7C1
:100CC0004020E4E78020D8E70020D6E706F10409B9
:100CD0004DE7284652E7206ABDE8F09FF027020062
:100CE00010B5203AC0F00B80B1E81850A0E81850B9
:100CF000B1E81850A0E81850203ABFF4F5AF5FEA09
:100D0000027C24BFB1E81850A0E8185044BF18C9AD
:100D100018C0BDE810405FEA827C24BF51F8043B54
:100D200040F8043B08BF7047D20728BF31F8023BA8
:100D300048BF11F8012B28BF20F8023B48BF00F83C
:100D4000012B70470048704774A6002430B5B0F1FD
:100D50000A0271F100034FEA900E4EEA817EB0EB79
:100D60000E0061EB91014FEA101E4EEA017E10EB7E
:100D70000E0041EB11114FEA102E4EEA016E10EBFE
:100D80000E0041EB11214FEA104E4EEA014E10EBDE
:100D90000E0041EB1141401841F100014FEAD00033
:100DA00040EA41704FEAD1014FEA810444EA90746D
:100DB00010EB800544EB01046D1944EB0404521B55
:100DC000A3414FF0000348BF0A3200D530BD401C9C
:100DD00041F1000130BD2DE9F0470D46994692469C
:100DE000044600F124080168880604D5E06921F072
:100DF0001001216000E00120A84201DD471B00E056
:100E00000027A1697A1902EB0900081AA06120786D
:100E1000C00602D42046FFF79CFC002608E0D4E977
:100E200001211AF806009047206A401C761C2062B7
:100E30004E45F4DB2078C0060AD52046FFF789FC32
:100E400006E0D4E9012130209047206A401C20624E
:100E5000381EA7F10107F4DC07E0D4E9012118F8F6
:100E600005009047206A401C2062281EA5F101055C
:100E7000F3DC2046FFF783FC2078000602D5022031
:100E8000BDE8F0870120FBE72DE9FF4F0C461E4629
:100E90004FF0FF378BB0D2E90001DDF860800A9097
:100EA0008A46C1F30A5505B93D46002108464FF070
:100EB0000000BAF1000F00F4400005DA00EB8000FA
:100EC0004FF4400101EA50004FEA9059B9F1010F87
:100ED00000DDB9460A9850EA4A000ED044F6105098
:100EE000A5F2FF3545432F14B8F1000F1ED075420F
:100EF000291E1EDDC9F100021CE0B8F1010F4FF000
:100F0000000001D0302103E0F24305E02154401CF1
:100F1000B042FBDB30460022002121540B99C1F87E
:100F20000880C1E900200FB0BDE8F08FBD1B6D1C2B
:100F3000DEE74A4600DA694206A800F0FBFB06AB92
:100F400093E8070003AB83E8070050460A9921F0B5
:100F500063FB8DE80700A0F500501F380090039850
:100F6000002D0ADD42F21F014A460844002303A96E
:100F70000390684621F0CCFD09E0A0F500504A46F8
:100F80001F38002303A90390684621F0D6FD8DE8A1
:100F900007000004000C03D04FF0FF30410800E0D0
:100FA0001046B8F1000F03D00022009215461EE053
:100FB000751E05D4FFF7CAFE303262556D1EF9D595
:100FC000B3460122084302D000227F1C04E02078AF
:100FD000302801D100227F1E002A099784D01DE00D
:100FE000112D07DAFFF7B2FE303262556D1C50EA60
:100FF0000102F5D1084302D00098C8B10EE00021EB
:10100000681E05E0235C625C63542254401E491C48
:101010008142F7DBAB46A81B401E0990002004F874
:101020000B000B98099AC0F80880C0E9002B7AE7FA
:1010300011264FF0000857E72DE9F04F8846044687
:10104000D21D22F0070191B0D1E90001CDE90A01DA
:1010500021F0AAFE02460B98C00F01D02D2007E018
:101060002068810701D52B2002E0202101EAC00081
:10107000032A099001D0072A05DB03464146204692
:1010800000F018FB0BE12078800601D5E06900E054
:101090000620B8F1650F814606D0B8F1660F18D06A
:1010A000B8F1670F70D131E00020B9F1110F009055
:1010B00001DB112301E009F101030AAA01A90CA82F
:1010C000FFF7E2FEDDE90C70002609F10105834619
:1010D00047E001204B4600904FF000470AAA01A9C3
:1010E0000CA8FFF7D1FEDDE90DB00C995D46002696
:1010F00010B909F101000D18B9EB050003D4C0F1D6
:10110000FF3609F10105A5EB09002BE0B9F1010F4C
:1011100001DA4FF001090020B9F1110F00904846A3
:1011200001DD112300E003460AAA01A90CA8FFF77C
:10113000ABFEDDE90C704D460026834620780007A3
:101140000AD4AB4500DA5D4601A8012D04DD411942
:1011500011F8011C302907D04F4502DA17F1040FAE
:1011600004DA012082460FE06D1EEEE7002F02DC5C
:10117000ED1B3E4403E0781CA84200DD7D1CB81B3B
:1011800000F1010A4FF000472078000703D4AA4578
:1011900001DB4FF0FF3A0021B7F1004F0DF143089A
:1011A0008DF8431024D002202B23002F01DA7F4238
:1011B0002D230A21021EA0F1010000DC5FB197FB84
:1011C000F1FC97FBF1F201FB1C7C17460CF1300C93
:1011D00008F801CDEEE7A8F10100037021880905A8
:1011E00001D5452100E06521A0F1010800F8011CAE
:1011F00009980FA9A1EB0807FF1D00B101204119B3
:1012000001EBEA70A1693844081A401EA0612078F9
:10121000C00602D42046FFF79CFA099828B1D4E909
:1012200001219047206A401C20622078C00622D508
:101230002046FFF78EFA1EE0002E04DBB34502DDE8
:1012400001A8805D00E03020D4E901219047206AA8
:10125000401C2062761CAAF101005FEA000A0AD154
:1012600000F024FAC0680168405CD4E9012190478D
:10127000206A401C2062281EA5F10105DCDC07E085
:10128000D4E9012118F8010B9047206A401C206224
:10129000381EA7F10107F3DC2046FFF770FA0320A0
:1012A00011B041E62DE9F04F04460D46D21D22F063
:1012B000070089B0D0E900974846394621F074FD0F
:1012C0000246F80F01D02D2307E02068810701D5E1
:1012D0002B2302E0202101EAC0038DF820300BB15E
:1012E000012000E00020032A824601D0072A04DB07
:1012F0002946204600F0DEF93FE12078800601D43F
:101300000D2500E0E569C7F30A560D2D49DA0021E5
:101310004FEA175B08464FF00000002F00F4400032
:1013200007DA00EB80004FF4400100EBD07001EAD7
:1013300060008115012901DD4FF0FF3100224FEAE5
:10134000850CBCF1180F06D31346ACF118004FF012
:101350008052C24003E04FF4801323FA0CF30CF1E7
:101360000C0CBCF1200F04D3ACF1200C09FA0CF0EA
:1013700001E007FA0CF000294FF0004801DD18B930
:101380000FE00ED140450CD319EB02095F4121B9A2
:10139000404502D19F4329EA0209BBEB175F00D009
:1013A000761C2088000502D57B48784402E07A4804
:1013B0007844193808AA302302F80A30037C0AF16D
:1013C0000101002E0AF1020A53546A4602DC4FF072
:1013D000300101E04FF031014FF001088DF80010AD
:1013E00002D0A6F2FF3603E059EA470100D06B4E67
:1013F000002D02DC2178090704D54FF002082E21C8
:101400008DF80110C44600210BE0C7F303433F01F0
:10141000C35C491C6D1E02F80830052908F101085B
:1014200001DA002DF1DC00210CE000EB1973491CFE
:101430001B786D1E082902F808304FEA091908F1D7
:10144000010801DA002DF0DC21688B0602D516E0D8
:10145000A8F10108E04505DD02EB080313F8013CA3
:10146000302BF5D0B8F1000F09DD02EB080313F8BB
:10147000013C2E2B03D1090701D4A8F10108002D4E
:1014800005DD3E2102F808106D1E08F10108407CC0
:10149000002E02F8080008F1010804DA2D20764237
:1014A00002F8080002E02B2002F808000A214FF49D
:1014B0007A70864208F101080BDB96FBF0F33033BB
:1014C00002F8083096FBF0F308F1010800FB136600
:1014D00001E0642E0CDB642096FBF0F3303302F85D
:1014E000083096FBF0F308F1010800FB136601E0F9
:1014F0000A2E06DB96FBF1F0303002F8080008F106
:10150000010896FBF1F001FB1060303002F8080092
:10151000A16908F1010808EB050202EB0A00081AAC
:10152000A0612078C00602D42046FFF712F9216A94
:1015300008AE01EB0A00206204E0D4E9012116F8AC
:10154000010B9047BAF1010AF7D22078C00602D504
:101550002046FFF7FEF86E4609E016F8010B3E281C
:101560000FD0D4E901219047206A401C2062B8F1D5
:101570000108F2D22046FFF702F909B00320BDE8C6
:10158000F08F206A2844206203E0D4E90121302052
:1015900090476D1EEBD3F8E77520020002FCFFFFB9
:1015A00010B5436913B1AFF3008001E0FFF70AF90A
:1015B000012010BD127800F124010A7000224A7047
:1015C0000122EDE711684FF0FF32E9E710B54369FA
:1015D00013B1AFF3008001E0FFF7A0F9012010BDC7
:1015E000128800F1240182840022C2840122EDE7E6
:1015F00011684FF0FF32E9E7007B00F08000704790
:101600002DE9F04116460C46054600F047F8036800
:1016100093F80101012807D0FF2C12D8185D80B182
:1016200001202C70BDE8F081D3F807013246214635
:1016300003F20713C7182846BC46BDE8F041002353
:1016400060474FF0FF30EDE70048704774A6002474
:101650007546FFF7F9FFAE4605006946534620F090
:101660000700854618B020B5FEF706FFBDE820400C
:101670004FF000064FF000074FF000084FF0000B4E
:10168000AC46ACE8C009ACE8C009ACE8C009ACE8BD
:10169000C00921F007018D467047000010B500F029
:1016A00005F8001D10BD00BF351C02000048704742
:1016B00094A600242DE9F0411F4604460326016844
:1016C000072A01F4006004DB08B116A505E016A5A1
:1016D00003E008B115A500E015A521F01000206079
:1016E000A069C01EA0610FB1401EA0612046FFF797
:1016F00030F84FB1D4E9012138469047206A401CA8
:101700002062C01C206206E0206AFAE7D4E90121C9
:1017100015F8010B9047761EF8D22046FFF72FF8F8
:10172000BDE8F0814E414E006E616E00494E4600AC
:10173000696E66002DE9F047814616468AB0354845
:1017400078440DC88DE80D0032487844801C03AC05
:101750000DC884E80D0041F69B300844372190FB0A
:10176000F1F290FBF1F5A5F1800501FB12041B3CA1
:1017700002D56442012000E00020DFF898A08046F6
:101780000027FA44AAF1BE0A0EE0E0070AD032466A
:10179000684607EB470101230AEB810121F0CDF9EF
:1017A0008DE8070064107F1C002CEED1194F7F4498
:1017B000AE3F19E0E80715D007EB04100DF1180A49
:1017C00090E80E008AE80E00C068F04201D1981936
:1017D00008903246012306A903A821F0AEF903AB15
:1017E00083E807006D10641C002DE3D14FF0010366
:1017F00032466946B8F1000F03A802D021F088F9FB
:1018000001E021F09AF9C9E90001C9F808200AB0FD
:10181000BDE8F087701D020010B50446AFF30080EC
:101820002046BDE81040FEF7F8BD000000000000B3
:1018300030B44FF0013C50F8042BCCFA52F451F87C
:10184000043BD51A20D1FCB950F8042BCCFA52F441
:1018500051F8043BD51A17D1B4B950F8042BCCFA7F
:1018600052F451F8043BD51A0ED16CB950F8042B40
:10187000CCFA52F451F8043BD51A05D1002CDAD039
:1018800030BC4FF00000704729BAB1FA81F111F075
:101890001801D1F120008440F2D1CA40CB4012F0AF
:1018A000FF0213F0FF0330BCD01A704700000000A5
:1018B00080B584B003900398006842F20001C4F23E
:1018C0000201884209D0FFE70398006842F2001144
:1018D000C4F20201884209D1FFE742F20830C4F2A3
:1018E0000200006810F4403F09D129E046F20830B8
:1018F000C5F60200006810F4403F21D0FFE70AF06F
:1019000053F80290039840680190B0F5803F0AD0E8
:10191000FFE70198B0F5003F05D0FFE70198B0F56B
:10192000403F07D00AE00398C1880298B0FBF1F06D
:10193000029004E002988008029000E0FFE75FE078
:101940004FF40020002107F093FD029003984068B7
:101950000090B0F5802F32D0FFE70098B0F5002F4F
:101960002DD0FFE70098B0F5402F28D0FFE7009872
:10197000B0F5801F23D0FFE70098B0F5A01F1ED060
:10198000FFE70098B0F5C01F19D0FFE70098B0F549
:10199000E01F1FD0FFE70098B0F5001F1ED0FFE743
:1019A0000098B0F5101F1DD0FFE70098B0F5201F7C
:1019B0001CD0FFE70098B0F5301F1BD01EE0039845
:1019C00041686FF0010000EA51410298B0FBF1F06C
:1019D000029014E002980009029010E00298400979
:1019E00002900CE002988009029008E00298C00979
:1019F000029004E00298000A029000E0FFE7FFE78F
:101A000006F05EFF41F20301884217D8FFE7029813
:101A100042F60151C0F23111884207D3FFE7039823
:101A20000168886840F48070886006E00398016867
:101A3000886820F480708860FFE743E002984008DF
:101A40000290029845F61061C0F25F01884209D801
:101A5000FFE703980068806820F4407003990968E4
:101A600088602EE002984BF62041C0F2BE01884209
:101A70000AD8FFE7039800688068012161F3092014
:101A80000399096888601BE0029847F64001C0F29C
:101A90007D1188420AD8FFE7039800688068022118
:101AA00061F3092003990968886008E003980068D9
:101AB000806840F44070039909688860FFE7FFE799
:101AC000FFE7FFE704B080BD80B582B001900198C8
:101AD000806B00900098406D10F0500F4AD1FFE7E6
:101AE0000099486D40F400704865009800680068EF
:101AF0000007002821D5FFE7009800680DF0FCFAE8
:101B0000D0B1FFE700980068C0688004002812D4B4
:101B1000FFE70099486D20F4807048650098406D9B
:101B2000C004002806D4FFE70099486D40F001008A
:101B30004865FFE7FFE7FFE718E000980068C06826
:101B4000800790B9FFE70099486D20F480704865E0
:101B50000098406DC004002806D4FFE70099486D46
:101B600040F001004865FFE7FFE7FFE7009802F05B
:101B700033FD10E00098406DC006002804D5FFE753
:101B8000009802F031FD05E00098C06CC16C01982E
:101B90008847FFE7FFE702B080BD000000000000BB
:101BA00080B582B001900198806B00900099486DDB
:101BB00040F0400048650099886D40F00400886559
:101BC000009802F011FD02B080BD0000000000008E
:101BD00080B582B001900198806B0090009802F06F
:101BE000FFFC02B080BD000080B584B00290029876
:101BF00000680DF051FA0090029800680DF054FA58
:101C000000284BD0FFE70098002847D1FFE7029853
:101C10000068806800F00D00012809D1FFE70298F4
:101C200000680DF0D5F902980168032008600DE006
:101C30000299486D40F0100048650299886D40F0A7
:101C40000100886501208DF80F002BE006F040FEB2
:101C50000190FFE7029800688068C007E8B1FFE7DD
:101C600006F036FE0199401A032815D3FFE70298C3
:101C700000688068C00770B1FFE70299486D40F0C6
:101C8000100048650299886D40F0010088650120C8
:101C90008DF80F0006E0FFE7DCE7FFE700208DF896
:101CA0000F00FFE79DF80F0004B080BD00000000AA
:101CB00080B586B00490049800680DF0F5F900280E
:101CC00040F09280FFE70498006880683F21C8F2E6
:101CD000000108420ED0FFE70499486D40F0100063
:101CE00048650499886D40F00100886501208DF8F1
:101CF00017007DE0049800680DF086F906F0E8FD15
:101D0000039004980168012042F20002C4F202022A
:101D1000914201900CD0FFE7049800684DF60071E5
:101D2000CBF6FD710844B0FA80F040090190FFE75E
:101D30000198C10746F20030C5F6020000291CBF19
:101D400042F20030C4F202000DF086F902900498CD
:101D5000006842F20011C4F20201884206D1FFE796
:101D600042F20000C4F20200009003E00498006810
:101D70000090FFE7009804990968884203D0FFE7C4
:101D8000029880BBFFE7FFE7049800680068C0077F
:101D900040BBFFE7049800680DF086F928B9FFE71B
:101DA000049800680DF030F9FFE706F091FD039903
:101DB000401A032815D3FFE7049800680068C0079D
:101DC00070B9FFE70499486D40F010004865049928
:101DD000886D40F00100886501208DF8170007E04C
:101DE000FFE7D1E7FFE7FFE700208DF81700FFE7E7
:101DF0009DF8170006B080BD80B582B041F2A040CA
:101E0000C0F61600FEF7C2FB00200190FFE7019824
:101E100047F2F401C2F200410968884242DAFFE762
:101E200041F2B140C0F61600FEF7B0FB0020009072
:101E3000FFE700980C2819DCFFE70198C0EBC00110
:101E400047F68C60C2F2004000EB8100009900EB85
:101E50004100B0F9021041F2A840C0F61600FEF7AA
:101E600095FBFFE7009801300090E2E70198C0EB96
:101E7000C00147F68C60C2F2004000EB8100B0F96F
:101E80001C1041F2AD40C0F61600FEF77FFB41F298
:101E90009A40C0F61600FEF779FBFFE70198013083
:101EA0000190B4E741F2A440C0F61600FEF76EFBC5
:101EB00002B080BD0000000070470000000000007C
:101EC000FFE7FEE70000000082B00190ADF80210CD
:101ED0000020ADF80000FFE7BDF80200411EADF89C
:101EE000021050B1FFE70198411C01910178BDF843
:101EF00000000844ADF80000EEE7BDF8000002B0B5
:101F0000704700000000000080B54BF28C20C2F248
:101F1000024003F009FF80BD80B54BF20430C2F2ED
:101F2000024003F001FF80BD80B54BF27C30C2F26D
:101F3000024003F0F9FE80BD80B54BF2F430C2F2EE
:101F4000024003F0F1FE80BD80B54BF26C40C2F25E
:101F5000024003F0E9FE80BD80B54BF2E440C2F2DE
:101F6000024003F0E1FE80BD80B54AF6BC70C2F2CB
:101F7000024003F0D9FE80BD80B54BF23400C2F2BE
:101F8000024003F0D1FE80BD80B54BF2AC00C2F23E
:101F9000024003F0C9FE80BD80B54BF22410C2F2AE
:101FA000024003F0C1FE80BD80B54BF29C10C2F22E
:101FB000024003F0B9FE80BD80B54BF21420C2F29E
:101FC000024003F0B1FE80BD80B54AF64470C2F213
:101FD000024003F0A9FE80BD83B002900298016820
:101FE00001201022C4F202029142009000F0A3806E
:101FF000FFE70298016801202822C4F20202914200
:10200000009000F09880FFE70298016801204022CC
:10201000C4F202029142009000F08D80FFE7029826
:10202000016801205822C4F202029142009000F09F
:102030008280FFE70298016801207022C4F2020248
:102040009142009077D0FFE7029801680120882232
:10205000C4F20202914200906DD0FFE7029801683D
:102060000120A022C4F202029142009063D0FFE757
:10207000029801680120B822C4F202029142009045
:1020800059D0FFE702980168012040F21042C4F2E3
:102090000202914200904ED0FFE7029801680120B1
:1020A00040F22842C4F202029142009043D0FFE77E
:1020B00002980168012040F24042C4F202029142BB
:1020C000009038D0FFE702980168012040F25842A2
:1020D000C4F20202914200902DD0FFE702980168FD
:1020E000012040F27042C4F202029142009022D0DC
:1020F000FFE702980168012040F28842C4F2020220
:102100009142009017D0FFE702980168012040F249
:10211000A042C4F20202914200900CD0FFE7029864
:1021200000684FF64831CBF6FD710844B0FA80F0F4
:1021300040090090FFE70098C00740B3FFE702980E
:10214000007810384AF6AB21CAF6AA21A0FB01108C
:1021500000090190019800F0070143F26850C0F6B1
:102160001200405C0299C8650198042807D3FFE774
:1021700002990868042262F30900886506E0029962
:10218000086840F2FF3290438865FFE705E0029956
:10219000086820F0FF008865FFE70298806D03B0B3
:1021A000704700000000000084B0039003980068AE
:1021B000019003980168012045F20842C5F6020229
:1021C000914200904ED0FFE703980168012045F24C
:1021D0001C42C5F602029142009043D0FFE70398EB
:1021E0000168012045F23042C5F60202914200909A
:1021F00038D0FFE703980168012045F24442C5F654
:102200000202914200902DD0FFE70398016801205F
:1022100045F25842C5F602029142009022D0FFE7F3
:1022200003980168012045F26C42C5F60202914212
:10223000009017D0FFE703980168012045F2804223
:10224000C5F60202914200900CD0FFE703980068A7
:102250004AF66C31CAF2FD710844B0FA80F04009C8
:102260000090FFE70098C00710B3FFE703980078DD
:1022700008384CF6CD41CCF6CC41A0FB011000094A
:102280000290029945F60000C5F6020000EB8100BD
:1022900003990866039945F68000C5F60200486672
:1022A000029800F01F01012088400399886635E0FC
:1022B0000398007810384AF6AB21CAF6AA21A0FB91
:1022C000011000090290019840F2B841C4F20201E5
:1022D00088420CD8FFE7019840F21041C4F2020195
:1022E000884204D3FFE7029808300290FFE7029982
:1022F00040F60000C4F2020000EB8100039908667A
:10230000039940F68000C4F202004866029800F08B
:102310001F010120884003998866FFE704B07047D9
:1023200083B002900298007901900198002800F093
:102330008A80FFE70198082800F28580FFE702986D
:102340000168012045F20842C5F602029142009060
:102350004ED0FFE702980168012045F21C42C5F605
:1023600002029142009043D0FFE7029801680120E9
:1023700045F23042C5F602029142009038D0FFE7A4
:1023800002980168012045F24442C5F602029142DA
:1023900000902DD0FFE702980168012045F25842D5
:1023A000C5F602029142009022D0FFE70298016830
:1023B000012045F26C42C5F602029142009017D00E
:1023C000FFE702980168012045F28042C5F602024B
:1023D000914200900CD0FFE7029800684AF66C31F9
:1023E000CAF2FD710844B0FA80F040090090FFE79E
:1023F0000098C00780B1FFE7019945F6FC00C5F6DB
:10240000020000EB81000299C866029945F640106F
:10241000C5F6020008670FE0019940F6FC00C4F21F
:10242000020000EB81000299C866029940F6401054
:10243000C4F202000867FFE70198411E01208840AE
:1024400002994867FFE703B07047000000000000F2
:1024500085B0049000208DF80F000498806918BBA7
:10246000FFE70498806A029003281BD80299DFE8EE
:1024700001F0020D0218049890F82F00C00720B157
:10248000FFE701208DF80F00FFE70CE00498C06A19
:10249000B0F1C07F04D1FFE701208DF80F00FFE706
:1024A00001E000E0FFE747E004988069B0F5005FD5
:1024B00026D1FFE70498806A019003281ED801996D
:1024C000DFE801F00206021101208DF80F0016E08E
:1024D000049890F82F00C00720B1FFE701208DF885
:1024E0000F00FFE70BE00498C06AB0F1C07F04D191
:1024F000FFE701208DF80F00FFE700E0FFE71AE09B
:102500000498806A0090032804D3FFE7009803280A
:1025100004D00EE001208DF80F000BE0049890F835
:102520002F00C00720B1FFE701208DF80F00FFE763
:1025300000E0FFE7FFE7FFE79DF80F0005B07047F9
:1025400089B008900791069205930898806D0490D1
:102550000898806D03900898016801201022C4F249
:1025600002029142029000F00381FFE7089801689F
:1025700001202822C4F202029142029000F0F88069
:10258000FFE70898016801204022C4F2020291424C
:10259000029000F0ED80FFE70898016801205822C2
:1025A000C4F202029142029000F0E280FFE7089834
:1025B000016801207022C4F202029142029000F0F0
:1025C000D780FFE70898016801208822C4F2020240
:1025D0009142029000F0CC80FFE70898016801204A
:1025E000A022C4F202029142029000F0C180FFE7F3
:1025F000089801680120B822C4F2020291420290B8
:1026000000F0B680FFE708980168012040F2104210
:10261000C4F202029142029000F0AA80FFE70898FB
:102620000168012040F22842C4F202029142029065
:1026300000F09E80FFE708980168012040F24042C8
:10264000C4F202029142029000F09280FFE70898E3
:102650000168012040F25842C4F202029142029005
:1026600000F08680FFE708980168012040F2704280
:10267000C4F20202914202907AD0FFE70898016802
:10268000012040F28842C4F20202914202906FD0CF
:10269000FFE708980168012040F2A042C4F202025C
:1026A0009142029064D0FFE708980168012040F24F
:1026B000B842C4F202029142029059D0FFE7089852
:1026C0000168012045F20842C5F6020291420290DB
:1026D0004ED0FFE708980168012045F21C42C5F67C
:1026E00002029142029043D0FFE70898016801205E
:1026F00045F23042C5F602029142029038D0FFE71F
:1027000008980168012045F24442C5F60202914250
:1027100002902DD0FFE708980168012045F2584249
:10272000C5F602029142029022D0FFE708980168A4
:10273000012045F26C42C5F602029142029017D088
:10274000FFE708980168012045F28042C5F60202C1
:10275000914202900CD0FFE7089800684AF66C316D
:10276000CAF2FD710844B0FA80F040090290FFE718
:102770000298C00770B1FFE70898416E806E48600C
:102780000898C06E28B1FFE70898016F406F486055
:10279000FFE7FFE70898016801201022C4F2020257
:1027A0009142019000F0A380FFE7089801680120A2
:1027B0002822C4F202029142019000F09880FFE7C3
:1027C0000898016801204022C4F20202914201905F
:1027D00000F08D80FFE70898016801205822C4F2BC
:1027E00002029142019000F08280FFE708980168A0
:1027F00001207022C4F202029142019077D0FFE7DB
:102800000898016801208822C4F2020291420190D6
:102810006DD0FFE7089801680120A022C4F20202EF
:102820009142019063D0FFE7089801680120B82227
:10283000C4F202029142019059D0FFE70898016862
:10284000012040F21042C4F20202914201904ED0A7
:10285000FFE708980168012040F22842C4F2020212
:102860009142019043D0FFE708980168012040F2AF
:102870004042C4F202029142019038D0FFE708982A
:102880000168012040F25842C4F2020291420190D4
:102890002DD0FFE708980168012040F27042C4F291
:1028A00002029142019022D0FFE7089801680120BE
:1028B00040F28842C4F202029142019017D0FFE731
:1028C00008980168012040F2A042C4F2020291423D
:1028D00001900CD0FFE7089800684FF64831CBF61E
:1028E000FD710844B0FA80F040090190FFE70198BB
:1028F000C00750B3FFE70898C06D00F01F013F20EC
:1029000088400499886008980168086820F480204D
:102910000860059808990968486008988068402808
:1029200009D1FFE70698089909688860079808990F
:102930000968C86008E007980899096888600698DF
:1029400008990968C860FFE782E0089801680120DB
:1029500045F20842C5F60202914200904ED0FFE7D0
:1029600008980168012045F21C42C5F60202914216
:10297000009043D0FFE708980168012045F23042FB
:10298000C5F602029142009038D0FFE7089801682E
:10299000012045F24442C5F60202914200902DD03A
:1029A000FFE708980168012045F25842C5F6020287
:1029B0009142009022D0FFE708980168012045F27B
:1029C0006C42C5F602029142009017D0FFE70898CA
:1029D0000168012045F28042C5F602029142009052
:1029E0000CD0FFE7089800684AF66C31CAF2FD7116
:1029F0000844B0FA80F040090090FFE70098C00753
:102A000020B3FFE70898C06D00F01F010120884047
:102A10000399486005980899096848600898806893
:102A2000402809D1FFE70698089909688860079847
:102A300008990968C86008E00798089909688860DB
:102A4000069808990968C860FFE700E0FFE7FFE71C
:102A500009B070470000000080B586B08DF81700FF
:102A60009DF81700C007B0B1FFE741F20000C5F6BE
:102A70000200039001210491002205F009FF0220C9
:102A80000FF096FC0398049A114605F001FF3C20D4
:102A90000FF08EFC15E041F20000C5F60200019037
:102AA00001210291002205F0F3FE3C200FF080FC92
:102AB0000198029A114605F0EBFE02200FF078FC17
:102AC000FFE706B080BD0000704700000000000076
:102AD00081B0EFF3108072B60090FFE7FEE70000D0
:102AE00080B586B005900491039200208DF80B000C
:102AF0008DF80A004AF6C001C2F202410191019A22
:102B0000FF211172019A5172019AFE219172019A6C
:102B10000B21D172019A83211173019A2A215173D9
:102B2000019A06219173019A0C21D17305990988A4
:102B3000019A117405994978019A51740499098888
:102B4000019A917404994978019AD174039909887A
:102B5000019A117503994978019A51758DF80A0007
:102B600002208DF80B00FFE79DF80B000D2811DC0B
:102B7000FFE701989DF80B100844017A9DF80A00C0
:102B800008448DF80A00FFE79DF80B0001308DF82E
:102B90000B00E9E79DF80A00C0438DF80A009DF894
:102BA0000A000199887501980068D0F888002028EB
:102BB00007D1FFE7019951F8080B0F220CF044F8F8
:102BC000FFE706B080BD000080B588B08DF81F001B
:102BD00006910592049300208DF80F008DF80E00E9
:102BE0009DF81F0001460191012804D0FFE70198DC
:102BF000022806D00BE04AF66010C2F202400290B2
:102C000006E04AF62050C2F20240029000E0FFE7E0
:102C10000299FF200872029948720299FE20887278
:102C200002992720C87202998320087302992A20EA
:102C300048730299062088739DF81F0000EB8000FE
:102C400004380299C8730698008802990874069897
:102C5000407802994874059800880299887405980C
:102C600040780299C87404980088029908750498FD
:102C70004078029948759DF81F0000EB80000338EA
:102C800002998875069840880299C8750698C07898
:102C90000299087605984088029948760598C07888
:102CA00002998876049840880299C8760498C0787A
:102CB000029908779DF81F0000EB80000238029906
:102CC0004877069880880299887706984079029913
:102CD000C87705988088029981F820000598407986
:102CE000029981F8210004988088029981F82200D5
:102CF00004984079029981F823009DF81F0000EBA9
:102D000080000138029981F824000698C088029951
:102D100081F825000698C079029981F82600059867
:102D2000C088029981F827000598C079029981F836
:102D300028000498C088029981F829000498C07975
:102D4000029981F82A009DF81F0000EB800002998B
:102D500081F82B0006980089029981F82C000698CA
:102D6000407A029981F82D0005980089029981F82E
:102D70002E000598407A029981F82F000498008966
:102D8000029981F830000498407A029981F8310064
:102D900000208DF80E0002208DF80F00FFE79DF84F
:102DA0000F00292811DCFFE702989DF80F10084456
:102DB000017A9DF80E0008448DF80E00FFE79DF89B
:102DC0000F0001308DF80F00E9E79DF80E00C043B9
:102DD0008DF80E009DF80E00029981F832000298DD
:102DE0000068D0F88800202807D1FFE7029951F841
:102DF000080B2B220BF028FFFFE708B080BD000076
:102E000080B586B005900491039200208DF80B00E8
:102E10008DF80A004AF68041C2F202410191019AFE
:102E2000FF211172019A5172019AFE219172019A49
:102E30000B21D172019B83221A73019B2A225A73A0
:102E4000019B06229A73019AD17305990988019A08
:102E5000117405994978019A517404990988019A65
:102E6000917404994978019AD17403990988019A57
:102E7000117503994978019A51758DF80A0002205D
:102E80008DF80B00FFE79DF80B000D2811DCFFE724
:102E900001989DF80B100844017A9DF80A00084437
:102EA0008DF80A00FFE79DF80B0001308DF80B004C
:102EB000E9E79DF80A00C0438DF80A009DF80A0072
:102EC0000199887501980068D0F88800202807D1FA
:102ED000FFE7019951F8080B0F220BF0B5FEFFE751
:102EE00006B080BD0000000080B582B08DF80700FC
:102EF00000208DF806008DF805009DF807000138C8
:102F0000014600910B2844D80099DFE801F006063D
:102F10000610101A1A1A24242E384AF23071C2F2FE
:102F200000414AF60020C2F20240086032E04AF254
:102F30003071C2F200414AF6A020C2F2024008609D
:102F400028E04AF23071C2F200414AF64030C2F243
:102F5000024008601EE04AF23071C2F200414AF6B7
:102F6000E030C2F20240086014E04AF23071C2F26E
:102F700000414AF68040C2F2024008600AE04AF28C
:102F80003071C2F200414AF6C000C2F2024008604D
:102F900000E0FFE74AF23071C2F200410A68FF2008
:102FA00010720A6850729DF807000A6890720A68E9
:102FB0000420D0720A68022010730B6838225A73FA
:102FC0000A680A21917300218DF805108DF806001A
:102FD000FFE79DF80600062815DCFFE74AF230708F
:102FE000C2F2004000689DF806100844017A9DF87E
:102FF000050008448DF80500FFE79DF80600013044
:103000008DF80600E5E79DF80500C0438DF8050042
:103010009DF805104AF23070C2F200400268D17388
:1030200000680068D0F8880020280BD1FFE74AF23A
:103030003070C2F20040016851F8080B08220BF012
:1030400003FEFFE702B080BD80B586B08DF81700A3
:103050008DF816108DF81520049300208DF80F00C0
:103060008DF80E009DF817000138014601910B28DC
:103070002CD80199DFE801F00606060C0C1212129A
:1030800018181E244AF60020C2F2024002901EE0E8
:103090004AF6A020C2F20240029018E04AF6403000
:1030A000C2F20240029012E04AF6E030C2F2024060
:1030B00002900CE04AF68040C2F20240029006E024
:1030C0004AF6C000C2F20240029000E0FFE7029917
:1030D000FF200872029948729DF8170002998872C1
:1030E0009DF8150003300299C872029903200873F5
:1030F0009DF81600029948739DF81500012838D1F3
:10310000FFE704980299887300208DF80E000220D2
:103110008DF80F00FFE79DF80F00062811DCFFE790
:1031200002989DF80F100844017A9DF80E0008449B
:103130008DF80E00FFE79DF80F0001308DF80F00AD
:10314000E9E79DF80E00C0438DF80E009DF80E00D3
:103150000299C87302980068D0F88800202807D127
:10316000FFE7029951F8080B08220BF06DFDFFE70D
:1031700041E09DF8150002283CD1FFE70498029930
:1031800088730498000A0299C87300208DF80E0015
:1031900002208DF80F00FFE79DF80F00072811DCD3
:1031A000FFE702989DF80F100844017A9DF80E0081
:1031B00008448DF80E00FFE79DF80F0001308DF8F0
:1031C0000F00E9E79DF80E00C0438DF80E009DF852
:1031D0000E000299087402980068D0F88800202830
:1031E00007D1FFE7029951F8080B09220BF02CFDDB
:1031F000FFE7FFE7FFE706B080BD0000000000002A
:1032000083B00290019100929DF80400C00790B134
:10321000FFE742F20C01C5F20021086820F4E660E5
:1032200008600098029A40EA02200A68104340F0C1
:1032300084000860FFE79DF804008007002812D58D
:10324000FFE742F20C11C5F20021086820F4E660A5
:1032500008600098029A40EA02200A68104340F091
:1032600084000860FFE703B0704700000000000022
:1032700082B001900091009800F00300032821D152
:10328000FFE742F20C02C5F20022106820F0300085
:10329000106042F20C11C5F20021086820F03000E5
:1032A0000860019B106818431060019A0868104379
:1032B000086042F21801C5F20021086840F01000D1
:1032C00008602DE09DF80000C00788B1FFE742F2DA
:1032D0000C01C5F20021086820F030000860019A56
:1032E000086810430860086840F088000860FFE73D
:1032F0009DF800008007002811D5FFE742F20C116D
:10330000C5F20021086820F030000860019A0868C2
:1033100010430860086840F088000860FFE7FFE796
:1033200002B070470000000080B584B003900291A5
:10333000019200200090FFE70098019988420FD287
:10334000FFE7039810F0D8FA0299009A41F822009A
:10335000039804300390FFE7009801300090EBE7FA
:1033600004B080BD0000000080B588B006900591D3
:10337000042004900020039005F0AAFA029005981A
:10338000022805D1FFE70420C8F200000490FFE7FF
:10339000FFE704990F20C1F6EF70084088420DD175
:1033A000FFE742F21000C5F20020006804990840CF
:1033B000401AB0FA80F0400901900EE042F210107D
:1033C000C5F200200068049921F000410840401A2D
:1033D000B0FA80F040090190FFE70198A8B1FFE73B
:1033E0000698013080B1FFE705F072FA0299401AA1
:1033F0000699884203D8FFE7069820B9FFE7032023
:103400008DF81F0071E0FFE7C3E7059801280BD195
:10341000FFE742F21000C5F2002000680021C1F26F
:10342000EE71084003900CE042F21010C5F200204B
:10343000006840F000400021C9F2EE71084003909E
:10344000FFE70398400020B3FFE7039A4BF60031F3
:10345000C2F2024188691043886103990F20C1F6C6
:10346000EF700840884207D1FFE7039842F2140149
:10347000C5F20021086008E0039820F0004042F205
:103480001411C5F200210860FFE701208DF81F002C
:103490002BE00598012812D1FFE742F21000C5F297
:1034A00000200068C003002808D5FFE742F214019D
:1034B000C5F200214FF480300860FFE711E042F2CE
:1034C0001010C5F200200068C003002808D5FFE7EF
:1034D00042F21411C5F200214FF480300860FFE77A
:1034E000FFE700208DF81F00FFE79DF81F0008B0E0
:1034F00080BD00000000000080B58CB00A900991EA
:103500000892002002900A98B0F1006F05D3FFE7FF
:103510000A98B0F1026F04D3FFE701208DF82F0065
:10352000EFE09DF82000400720B1FFE701208DF873
:103530002F00E6E09DF82800C00620B1FFE701203B
:103540008DF82F00DDE00898C008029004F054FFC9
:103550008DF807009DF8070028B1FFE79DF80700E8
:103560008DF82F00CDE00A9800F17840049004987F
:10357000400C07900498C0F34B1006900698C0F5D5
:103580008050059002980599884203D8FFE7029879
:103590000590FFE7FFE707994FF0006000EB41401F
:1035A0004AF23471C2F200414FF40042FFF7BCFE10
:1035B00000200390FFE703980599B0EBC10F13D2E9
:1035C000FFE70699039800EBC1014AF23470C2F29A
:1035D000004050F82100013008B1FFE704E0FFE7A8
:1035E000039801300390E6E703980599B0EBC10F0B
:1035F00040D2FFE707994FF0006000EB414010F028
:10360000DFF800200390FFE703980599B0EBC10FA6
:1036100012D2FFE70998039950F82100069A01EBAE
:10362000C2024AF23471C2F2004141F82200FFE7BF
:10363000039801300390E7E700200390FFE7039928
:103640000020B0EB113F14D1FFE707984004039A24
:1036500000EB421000F100604AF23471C2F2004106
:1036600001EB421110F004F9FFE7039801300390D9
:10367000E5E716E000200390FFE7039805998842EC
:103680000ED2FFE70A98039A00EB4210099901EB6A
:10369000421110F0EDF8FFE7039801300390ECE7DA
:1036A000FFE702980599884201D1FFE720E00798DB
:1036B00001300790002006900599099800EB411011
:1036C000099005990A9800EB41100A900599029813
:1036D000401A02900298B0F5805F04D9FFE74FF4DA
:1036E0008050059002E002980590FFE7FFE752E75F
:1036F00004F09EFD8DF807009DF807008DF82F005F
:10370000FFE79DF82F000CB080BD00000000000016
:1037100082B000900098B0F1006F05D3FFE70098E9
:10372000B0F1026F03D3FFE70A200190C7E00098D1
:10373000000D802860D8FFE700984FF6FE71C0F6B4
:103740000101884203D8FFE700200190B7E000980C
:103750004FF6FE71C0F60301884203D8FFE701204F
:103760000190ACE000984FF6FE71C0F6050188426A
:1037700003D8FFE702200190A1E000984FF6FE7108
:10378000C0F60701884203D8FFE70320019096E0C6
:1037900000984FF6FE71C0F60901884203D8FFE792
:1037A000042001908BE000984FF6FE71C0F60B01EB
:1037B000884203D8FFE70520019080E000984FF68B
:1037C000FE71C0F60D01884203D8FFE70620019084
:1037D00075E000984FF6FE71C0F60F01884203D8DD
:1037E000FFE7072001906AE0FFE7FFE7FFE7FFE759
:1037F000FFE7FFE7FFE75FE000984FF6FE71C0F6D6
:103800001101884203D8FFE70020019057E000989B
:103810004FF6FE71C0F61301884203D8FFE701207E
:1038200001904CE000984FF6FE71C0F615018842F9
:1038300003D8FFE70220019041E000984FF6FE71A7
:10384000C0F61701884203D8FFE70320019036E055
:1038500000984FF6FE71C0F61901884203D8FFE7C1
:10386000042001902BE000984FF6FE71C0F61B017A
:10387000884203D8FFE70520019020E000984FF62A
:10388000FE71C0F61D01884203D8FFE706200190B3
:1038900015E000984FF6FE71C0F61F01884203D86C
:1038A000FFE7072001900AE0FFE7FFE7FFE7FFE7F8
:1038B000FFE7FFE7FFE7FFE70A200190FFE7019836
:1038C00002B07047000000004AF6C050C2F2024049
:1038D000007A70470000000081B04BF64840C2F209
:1038E00002400078042804D1FFE701208DF803008E
:1038F00003E000208DF80300FFE79DF8030001B00E
:10390000704700000000000081B04BF64840C2F252
:1039100002400078012804D1FFE701208DF8030060
:1039200017E04BF64840C2F202400078022808D067
:10393000FFE74BF64840C2F202400078032804D16A
:10394000FFE702208DF8030003E003208DF8030059
:10395000FFE79DF8030001B0704700000000000081
:1039600083B002A800900020029001208DF807008B
:10397000FFE79DF807000C2832DCFFE700989DF870
:10398000071001EB81024AF28A71C2F2024101EB97
:103990008201498900EE101AB8EEC00A90ED001AB3
:1039A000B4EE410AF1EE10FA13DBFFE700989DF840
:1039B000071001EB81024AF28A71C2F2024101EB67
:1039C0008201498900EE101AB8EE400A80ED000A23
:1039D000FFE7FFE79DF8070001308DF80700C8E713
:1039E000009890ED000ABDEEC00A10EE100A03B078
:1039F000704700000000000081B040F20200C2F2F7
:103A0000004000880A2804D1FFE701208DF8030058
:103A100003E002208DF80300FFE79DF8030001B0EA
:103A2000704700000000000080B586B0049003914C
:103A3000029200200090FFE7049890F850000128BF
:103A400004D1FFE702208DF817005BE00499012004
:103A500081F85000FFE7FFE70498FEF7C5F88DF8FE
:103A600007009DF80700E0BBFFE70498406D40F0B9
:103A7000020020F48850049948650498006803996E
:103A8000029A0BF021FCFFE7049800680BF0F4FAAF
:103A9000F0B1FFE700980130009000984FF6000168
:103AA000C2F2C351884212D3FFE70498406D40F040
:103AB000100020F0020004994865FFE704990020F7
:103AC00081F85000FFE701208DF817001AE0DBE7CE
:103AD0000498406D40F0010020F002000499486510
:103AE00005E00499486D40F010004865FFE7FFE7E6
:103AF0000499002081F85000FFE79DF807008DF839
:103B00001700FFE79DF8170006B080BD0000000019
:103B100080B5A6B02490239100208DF88B002398C7
:103B2000006808B1FFE7FFE7FFE7249890F850002E
:103B3000012804D1FFE702208DF897002DE1249998
:103B4000012081F85000FFE7FFE700201D901E9044
:103B50002498006842F20001C4F20201884206D1B2
:103B6000FFE742F20010C4F20200089002E00020D9
:103B70000890FFE7089878B9FFE72499486D40F06E
:103B800020004865FFE72499002081F85000FFE7F6
:103B900001208DF8970000E108980BF0A5FA079036
:103BA000249800680BF0A0FA002840F0E280FFE7BC
:103BB0000798002840F0DD80FFE724980168012085
:103BC00042F20002C4F20202914206900CD0FFE7DA
:103BD000249800684DF60071CBF6FD710844B0FAE8
:103BE00080F040090690FFE70698C10746F20030D2
:103BF000C5F6020000291CBF42F20030C4F20200E8
:103C000021902398006800285ED0FFE72198806803
:103C100020F44040239949680843219988602498FA
:103C20000168012042F20002C4F2020291420590B2
:103C30000CD0FFE7249800684DF60071CBF6FD71BB
:103C40000844B0FA80F040090590FFE70598C107E5
:103C500046F20030C5F6020000291CBF42F20030D7
:103C6000C4F2020042F20031C4F20201884212D1D1
:103C7000FFE742F20000C4F202000BF01DFA0390CD
:103C800042F20010C4F202000BF016FA014603984B
:103C90000843049007E046F20000C5F602000BF06E
:103CA0000BFA0490FFE7049868B9FFE72198806851
:103CB00040F61F718843239A1168926811430843A4
:103CC00021998860FFE753E02199886820F44040FB
:103CD000886024980168012042F20002C4F20202C6
:103CE000914202900CD0FFE7249800684DF60071D5
:103CF000CBF6FD710844B0FA80F040090290FFE76E
:103D00000298C10746F20030C5F6020000291CBF28
:103D100042F20030C4F2020042F20031C4F2020169
:103D2000884212D1FFE742F20000C4F202000BF019
:103D3000C3F9009042F20010C4F202000BF0BCF98B
:103D4000014600980843019007E046F20000C5F6DE
:103D500002000BF0B1F90190FFE7019838B9FFE7D5
:103D60002199886840F61F7290438860FFE7FFE75B
:103D700008E02499486D40F02000486501208DF846
:103D80008B00FFE7FFE72499002081F85000FFE750
:103D90009DF88B008DF89700FFE79DF8970026B0FF
:103DA00080BD00000000000080B5B0B01E901D91E5
:103DB00000208DF8730019901E9890F838000128A3
:103DC00001D1FFE700E0FFE71D98C0680021C4F2C1
:103DD000FF71884201D0FFE71EE01E98006842F2A2
:103DE0000001C4F20201884201D1FFE7FFE71E98FB
:103DF000006842F20011C4F20201884201D1FFE7DB
:103E0000FFE71E98006846F20001C5F602018842ED
:103E100001D1FFE7FFE7FFE7FFE71E9890F85000AA
:103E2000012804D1FFE702208DF87F00CDE31E9921
:103E3000012081F85000FFE7FFE71E9800680BF0B3
:103E40004BF9002840F0AD83FFE71D98C0780006CD
:103E500000282DD4FFE71D980068000330B9FFE764
:103E60001D980068C0F38460169015E01D980068E6
:103E700090FAA0F02E902E9820B9FFE720208DF820
:103E8000BF0005E02E98B0FA80F08DF8BF00FFE784
:103E90009DF8BF001690FFE7169800F01F01012063
:103EA00000FA01F21E980168C8691043C861FFE773
:103EB0001E9800681D990A6849680BF039F91E9828
:103EC00000680BF009F918901E9800680BF0CCF808
:103ED00017901898002840F0B580FFE71798002841
:103EE00040F0B080FFE71E9800681D9A1168926844
:103EF0000BF04EF941F20000C5F60040006800F0FA
:103F00007040B0F1805F0BD1FFE71D9840691E99AA
:103F10000968C96801F01C014908884015901FE034
:103F20001E980068C068C00600280BD4FFE71D98E3
:103F300040691E990968C96801F01C014908884058
:103F400014900AE01D9840691E990968C96801F03B
:103F50001001490888401490FFE714981590FFE776
:103F600015981B901D980069042821D0FFE71E9822
:103F700000681D990A6809691B9B0BF075F91E986A
:103F800000681D9A1169527E013AB2FA82F2520912
:103F9000D2070BF085F91E9800681D9A1169127EF0
:103FA000013AB2FA82F25209D2020BF049F948E022
:103FB0001E980068006E00F0F8401D990968B0EB8B
:103FC000816F07D1FFE71E980168086E20F000405E
:103FD0000866FFE71E980068406E00F0F8401D99E3
:103FE0000968B0EB816F07D1FFE71E980168486E42
:103FF00020F000404866FFE71E980068806E00F0E1
:10400000F8401D990968B0EB816F07D1FFE71E9852
:104010000168886E20F000408866FFE71E980068FF
:10402000C06E00F0F8401D990968B0EB816F07D1B0
:10403000FFE71E980168C86E20F00040C866FFE7E1
:10404000FFE7FFE71E9800680BF02EF8002840F00D
:10405000A782FFE71E9800681D9A1168D2680BF0CE
:10406000B3F81D98C0680021C4F2FF71884240F087
:104070003381FFE71E98006813901D9800680003C5
:1040800030B9FFE71D980068C0F38460129015E016
:104090001D98006890FAA0F02C902C9820B9FFE7AA
:1040A00020208DF8B70005E02C98B0FA80F08DF84C
:1040B000B700FFE79DF8B7001290FFE712980130B4
:1040C00000F01F0009287DD8FFE71D980068000355
:1040D00030B9FFE71D980068C0F38460119015E0C7
:1040E0001D98006890FAA0F02A902A9820B9FFE75E
:1040F00020208DF8AF0005E02A98B0FA80F08DF806
:10410000AF00FFE79DF8AF001190FFE71198013075
:1041100000F01F00800610901D980068000330B961
:10412000FFE71D980068C0F384600F9015E01D98AC
:10413000006890FAA0F02890289820B9FFE7202086
:104140008DF8A70005E02898B0FA80F08DF8A70058
:10415000FFE79DF8A7000F90FFE710980F99013136
:1041600001F01F020121914008430E901D98006844
:10417000000330B9FFE71D980068C0F384600D901C
:1041800015E01D98006890FAA0F02690269820B9B6
:10419000FFE720208DF89F0005E02698B0FA80F018
:1041A0008DF89F00FFE79DF89F000D90FFE70E98A8
:1041B0000D99013101F01F0101EB410140EA01506D
:1041C0000C9082E01D980068000330B9FFE71D984D
:1041D0000068C0F384600B9015E01D98006890FAA9
:1041E000A0F02490249820B9FFE720208DF89700B4
:1041F00005E02498B0FA80F08DF89700FFE79DF86D
:1042000097000B90FFE70B98013000F01F0080062D
:104210000A901D980068000330B9FFE71D980068F8
:10422000C0F38460099015E01D98006890FAA0F032
:104230002290229820B9FFE720208DF88F0005E01A
:104240002298B0FA80F08DF88F00FFE79DF88F007C
:104250000990FFE70A980999013101F01F02012135
:104260009140084308901D980068000330B9FFE7AB
:104270001D980068C0F38460079015E01D980068E1
:1042800090FAA0F02090209820B9FFE720208DF828
:10429000870005E02098B0FA80F08DF88700FFE7EE
:1042A0009DF887000790FFE708990798013000F014
:1042B0001F0000EB40020020CFF6206000EB025010
:1042C000084340F000700C90FFE713980C991D9A7A
:1042D00092680AF05DFFFFE71D98C078000600288D
:1042E00040F15D81FFE71E980168012042F2000263
:1042F000C4F20202914206900CD0FFE71E980068BB
:104300004DF60071CBF6FD710844B0FA80F040091B
:104310000690FFE70698C10746F20030C5F6020096
:1043200000291CBF42F20030C4F202000AF08CFEE9
:104330001A901E9801684FF0010042F20002C4F288
:104340000202914205900CD0FFE71E9800684DF6DE
:104350000071CBF6FD710844B0FA80F04009059079
:10436000FFE70598C10746F20030C5F602000029B4
:104370001CBF42F20030C4F2020042F20031C4F22B
:104380000201884212D1FFE742F20000C4F20200AB
:104390000AF08AFE039042F20010C4F202000AF012
:1043A00083FE014603980843049007E046F20000AC
:1043B000C5F602000AF078FE0490FFE70498002892
:1043C00040F0E380FFE71D9800680021CCF68431BF
:1043D000884255D1FFE79DF86A00000600284FD4B7
:1043E000FFE71E98006846F20001C5F60201884208
:1043F00045D1FFE71E980168012042F20002C4F295
:104400000202914202900CD0FFE71E9800684DF620
:104410000071CBF6FD710844B0FA80F040090290BB
:10442000FFE70298C10746F20030C5F602000029F6
:104430001CBF42F20030C4F202001A9941F400019C
:104440000AF0EEFE47F2EC00C2F2004000684FEACC
:10445000901042F66351C0F23E51A0FB01104FEAAA
:1044600090114FF0020000EB41001990FFE71998FE
:1044700020B1FFE7199801381990F8E7FFE783E0CA
:104480001D9800680021CCF25271884238D1FFE7B4
:104490009DF86B00C00798BBFFE71E98006846F2C6
:1044A0000001C5F60201884229D1FFE71E98016884
:1044B000012042F20002C4F20202914201900CD0AB
:1044C000FFE71E9800684DF60071CBF6FD710844B9
:1044D000B0FA80F040090190FFE70198C10746F269
:1044E0000030C5F6020000291CBF42F20030C4F2C1
:1044F00002001A9941F080710AF092FEFFE742E053
:104500001D9800680021CCF6B871884239D1FFE7C8
:104510009DF86A004006002833D4FFE71E98006823
:1045200046F20001C5F60201884229D1FFE71E9834
:104530000168012042F20002C4F20202914200909E
:104540000CD0FFE71E9800684DF60071CBF6FD71A8
:104550000844B0FA80F040090090FFE70098C107D6
:1045600046F20030C5F6020000291CBF42F20030BE
:10457000C4F202001A9941F480010AF051FEFFE7EB
:1045800000E0FFE7FFE7FFE708E01E99486D40F015
:104590002000486501208DF87300FFE7FFE7FFE783
:1045A00008E01E99486D40F02000486501208DF814
:1045B0007300FFE7FFE71E99002081F85000FFE736
:1045C0009DF873008DF87F00FFE79DF87F0030B005
:1045D00080BD00000000000081B0009001B0704775
:1045E00081B0009001B0704781B0009001B0704779
:1045F00010B58CB00A9000208DF8270006900A981C
:1046000020B9FFE701208DF82F00D1E10A98C0689A
:1046100038B1FFE70A98007F012801D1FFE7FFE7E3
:10462000FFE70A98406D50B9FFE70A9800F0C4F917
:104630000A99002088650A9981F85000FFE70A98D6
:1046400000680AF021FD28B1FFE70A9800680AF027
:10465000CFFCFFE70A9800680AF036FDE8B9FFE7EB
:104660000A9800680AF0E0FC47F2EC00C2F2004051
:104670000068800942F66351C0F23E51A0FB01017F
:10468000012000EB91100690FFE7069820B1FFE7AC
:10469000069801380690F8E7FFE70A9800680AF0E4
:1046A00013FD70B9FFE70A99486D40F010004865A6
:1046B0000A99886D40F00100886501208DF8270077
:1046C000FFE70A9800680AF007FD07900A98406D16
:1046D000C006002800F15E81FFE70798002840F03F
:1046E0005981FFE70A98406D40F0020020F4807085
:1046F0000A9948650A9800680AF0D6FC002870D12B
:10470000FFE70A980168012042F20002C4F20202A7
:10471000914203900CD0FFE70A9800684DF60071B3
:10472000CBF6FD710844B0FA80F040090390FFE732
:104730000398C10746F20030C5F6020000291CBFED
:1047400042F20030C4F2020042F20031C4F202012F
:10475000884212D1FFE742F20000C4F202000AF0E0
:10476000A3FC019042F20010C4F202000AF09CFC8B
:10477000014601980843029007E046F20000C5F6A2
:1047800002000AF091FC0290FFE7029840BBFFE7AD
:104790000A980168012042F20002C4F2020291422A
:1047A00000900CD0FFE70A9800684DF60071CBF638
:1047B000FD710844B0FA80F040090090FFE70098CE
:1047C000C10746F20030C5F6020000291CBF42F2C4
:1047D0000030C4F202000A9949680AF011FDFFE7AF
:1047E000FFE704F06DF841F20401884213D3FFE7BC
:1047F0000A98806810280ED1FFE70A994A7D086B55
:1048000040EA42308A681043097F40EA014040F0A4
:104810000C0008900BE00A994A7D086B40EA423090
:104820008A681043097F40EA01400890FFE70A9830
:10483000007F01280BD1FFE70A98016A0020CFF61C
:10484000FE7000EB4141089808430890FFE70A9882
:10485000406A50B1FFE70A99486A896A00F47870A3
:104860000143089808430890FFE70A980068C06869
:104870004CF20301CFF6F0710840089908430A99F9
:104880000968C8600A9800680AF026FC05900A9832
:1048900000680AF0E9FB04900598002859D1FFE769
:1048A0000498002855D1FFE70A98017DC06A40EAC4
:1048B000813008900A980068C06844F20301884378
:1048C000089908430A990968C8600A9890F838005E
:1048D000012829D1FFE70A98406A20B1FFE70A982A
:1048E000806A08B9FFE7FFE70A98006800694FF699
:1048F0001E01CFF6004100EA01020A9B1968DC6B39
:10490000D3F840E0D3F844C00020CFF6FF7000EBAE
:10491000044040EA0E0040EA0C009B6C1843104330
:1049200040F00100086106E00A980168086920F07B
:1049300001000861FFE70A980068006920F07040F4
:104940000A9A1168526B104308610A98FCF7B0FF8D
:10495000FFE70A98C06801280CD1FFE70A980068B1
:10496000006B20F00F000A9A11689269013A104317
:10497000086306E00A980168086B20F00F000863DE
:10498000FFE70A98406D40F0010020F002000A990C
:10499000486508E00A99486D40F01000486501201C
:1049A0008DF82700FFE79DF827008DF82F00FFE71F
:1049B0009DF82F000CB010BD80B5BEB03D9000201A
:1049C0003C903B903A903990389008A8C021FBF772
:1049D0008BFE3D98006842F20001C4F20201884259
:1049E00040F09480FFE7002009904FF400210891E7
:1049F00002210A910C220B920C920D910E91C02172
:104A00000F91202110911190319008A805F058FBCA
:104A100018B1FFE7FEF75CF8FFE7FFE744F2D84084
:104A2000C5F60200016841F020010160006800F055
:104A3000200007900798FFE7FFE744F2E040C5F643
:104A40000200016841F004010160006800F0040008
:104A500006900698FFE7FFE744F2E040C5F6020043
:104A6000016841F002010160006800F00200059059
:104A70000598FFE71020389003200190399000201E
:104A800003903A9040F60000C5F6020038A9029162
:104A900003F002FD019A0299039802233893399298
:104AA0003A9040F20040C5F6020003F0F5FC03998D
:104AB0004AF64470C2F20240049040F27042C4F2DE
:104AC00002020260092242608160C1604FF480628C
:104AD00002614FF4006242614FF4005282614FF470
:104AE0008072C2610162416202F0FEF918B1FFE713
:104AF000FDF7EEFFFFE7FFE73D984AF64471C2F28B
:104B00000241C1643D988863FFE7FFE73EB080BD86
:104B100080B588B00690059104920698016801203E
:104B200042F20002C4F20202914201900CD0FFE76F
:104B3000069800684DF60071CBF6FD710844B0FA96
:104B400080F040090190FFE70198C10746F200306C
:104B5000C5F6020000291CBF42F20030C4F2020078
:104B60000AF07AFA0290069800680AF0B5FA00286E
:104B700040F0AF80FFE7FFE7069890F8500001286B
:104B800004D1FFE702208DF81F00ABE00699012059
:104B900081F85000FFE7FFE7029848B1FFE702986D
:104BA000052805D0FFE70298092840F08780FFE735
:104BB0000698FDF77DF88DF80F009DF80F0000288E
:104BC00074D1FFE70698406D40F4807040F60161B3
:104BD0008843069948650698006842F20011C4F2BD
:104BE0000201884206D1FFE742F20000C4F202004F
:104BF000009003E0069800680090FFE7009806998F
:104C00000968884203D0FFE7029830B9FFE70699A8
:104C1000486D20F480104865FFE70698406DC00499
:104C2000002806D5FFE70699886D20F00600886504
:104C300003E0069900208865FFE70698C16C41F6FD
:104C4000C920C0F61000C8630698C16C41F6D13087
:104C5000C0F6100008640698C16C41F6A130C0F699
:104C60001000C864069801681C200860FFE70699D8
:104C7000002081F85000FFE706980168486840F07E
:104C80001000486006990868C96A0AF041FA069857
:104C90000168C06C4031059A049B02F0D9FD8DF883
:104CA0000F00069800680AF063FA06E0FFE706992D
:104CB000002081F85000FFE7FFE709E001208DF8B0
:104CC0000F00FFE70699002081F85000FFE7FFE79B
:104CD00003E002208DF80F00FFE79DF80F008DF82C
:104CE0001F00FFE79DF81F0008B080BD0000000016
:104CF00080B58AB0089003F0EBFD0490089828B9BD
:104D0000FFE701208DF8270000F0AABC089890F872
:104D1000350002280ED0FFE7089980204865FFE79C
:104D20000899002081F83400FFE701208DF8270062
:104D300000F096BC0898016801201022C4F202021B
:104D40009142039000F0A380FFE7089801680120DA
:104D50002822C4F202029142039000F09880FFE7FB
:104D60000898016801204022C4F202029142039097
:104D700000F08D80FFE70898016801205822C4F2F6
:104D800002029142039000F08280FFE708980168D8
:104D900001207022C4F202029142039077D0FFE713
:104DA0000898016801208822C4F20202914203900F
:104DB0006DD0FFE7089801680120A022C4F202022A
:104DC0009142039063D0FFE7089801680120B82260
:104DD000C4F202029142039059D0FFE7089801689B
:104DE000012040F21042C4F20202914203904ED0E0
:104DF000FFE708980168012040F22842C4F202024D
:104E00009142039043D0FFE708980168012040F2E7
:104E10004042C4F202029142039038D0FFE7089862
:104E20000168012040F25842C4F20202914203900C
:104E30002DD0FFE708980168012040F27042C4F2CB
:104E400002029142039022D0FFE7089801680120F6
:104E500040F28842C4F202029142039017D0FFE769
:104E600008980168012040F2A042C4F20202914277
:104E700003900CD0FFE7089800684FF64831CBF656
:104E8000FD710844B0FA80F040090390FFE70398F1
:104E9000C00780B1FFE708980168086820F01E008D
:104EA000086008980168486920F080004861089807
:104EB0000068059009E008980168086820F00E0075
:104EC0000860089800680590FFE7089801680120CD
:104ED0001022C4F202029142029000F00381FFE727
:104EE0000898016801202822C4F20202914202902F
:104EF00000F0F880FFE70898016801204022C4F222
:104F000002029142029000F0ED80FFE708980168EC
:104F100001205822C4F202029142029000F0E28085
:104F2000FFE70898016801207022C4F20202914252
:104F3000029000F0D780FFE70898016801208822DE
:104F4000C4F202029142029000F0CC80FFE7089880
:104F500001680120A022C4F202029142029000F0F6
:104F6000C180FFE7089801680120B822C4F202025C
:104F70009142029000F0B680FFE708980168012096
:104F800040F21042C4F202029142029000F0AA8064
:104F9000FFE708980168012040F22842C4F20202AB
:104FA0009142029000F09E80FFE70898016801207E
:104FB00040F24042C4F202029142029000F092801C
:104FC000FFE708980168012040F25842C4F202024B
:104FD0009142029000F08680FFE708980168012066
:104FE00040F27042C4F20202914202907AD0FFE78E
:104FF00008980168012040F28842C4F202029142FE
:1050000002906FD0FFE708980168012040F2A042AB
:10501000C4F202029142029064D0FFE7089801684E
:10502000012040F2B842C4F202029142029059D0EB
:10503000FFE708980168012045F20842C5F6020220
:10504000914202904ED0FFE708980168012045F296
:105050001C42C5F602029142029043D0FFE7089835
:105060000168012045F23042C5F6020291420290E9
:1050700038D0FFE708980168012045F24442C5F6A0
:105080000202914202902DD0FFE7089801680120AA
:1050900045F25842C5F602029142029022D0FFE743
:1050A00008980168012045F26C42C5F6020291425F
:1050B000029017D0FFE708980168012045F280426E
:1050C000C5F60202914202900CD0FFE708980068F2
:1050D0004AF66C31CAF2FD710844B0FA80F040091A
:1050E0000290FFE70298C00738B1FFE70898016E09
:1050F000086820F480700860FFE7089800681021B5
:10510000C4F20201884200F08180FFE7089800683D
:105110002821C4F20201884278D0FFE7089800688D
:105120004021C4F20201884270D0FFE7089800686D
:105130005821C4F20201884268D0FFE7089800684D
:105140007021C4F20201884260D0FFE7089800682D
:105150008821C4F20201884258D0FFE7089800680D
:10516000A021C4F20201884250D0FFE708980068ED
:10517000B821C4F20201884248D0FFE708980068CD
:1051800040F21041C4F2020188423FD0FFE7089884
:10519000006840F22841C4F20201884236D0FFE79D
:1051A0000898006840F24041C4F2020188422DD0C4
:1051B000FFE70898006840F25841C4F202018842B3
:1051C00024D0FFE70898006840F27041C4F2020161
:1051D00088421BD0FFE70898006840F28841C4F27B
:1051E0000201884212D0FFE70898006840F2A0410F
:1051F000C4F20201884209D0FFE70898006840F233
:10520000B841C4F20201884207D1FFE7089801685B
:10521000086820F00100086006E008980168086846
:1052200020F001000860FFE7FFE705980068C0076D
:10523000C8B1FFE703F04CFB0499401A062811D3CC
:10524000FFE70899202048650899032081F8350078
:10525000FFE70899002081F83400FFE701208DF86E
:105260002700FDE1E1E70898016801201022C4F25F
:1052700002029142019000F0A380FFE708980168C4
:1052800001202822C4F202029142019000F098808D
:10529000FFE70898016801204022C4F2020291420F
:1052A000019000F08D80FFE70898016801205822E6
:1052B000C4F202029142019000F08280FFE7089858
:1052C000016801207022C4F202029142019077D05D
:1052D000FFE70898016801208822C4F20202914287
:1052E00001906DD0FFE7089801680120A022C4F268
:1052F00002029142019063D0FFE708980168012003
:10530000B822C4F202029142019059D0FFE70898F6
:105310000168012040F21042C4F202029142019061
:105320004ED0FFE708980168012040F22842C4F2FD
:1053300002029142019043D0FFE7089801680120E2
:1053400040F24042C4F202029142019038D0FFE79D
:1053500008980168012040F25842C4F202029142CA
:1053600001902DD0FFE708980168012040F27042BB
:10537000C4F202029142019022D0FFE7089801682E
:10538000012040F28842C4F202029142019017D0FB
:10539000FFE708980168012040F2A042C4F202022F
:1053A000914201900CD0FFE7089800684FF6483111
:1053B000CBF6FD710844B0FA80F040090190FFE798
:1053C0000198C00760B1FFE70898806D07900898C2
:1053D000C06D00F01F013F208840079988600BE0F6
:1053E0000898806D06900898C06D00F01F0101209C
:1053F000884006994860FFE708980168012010225C
:10540000C4F202029142009000F00381FFE7089885
:10541000016801202822C4F202029142009000F0AB
:10542000F880FFE70898016801204022C4F20202D8
:105430009142009000F0ED80FFE70898016801209C
:105440005822C4F202029142009000F0E280FFE78D
:105450000898016801207022C4F202029142009073
:1054600000F0D780FFE70898016801208822C4F285
:1054700002029142009000F0CC80FFE7089801689A
:105480000120A022C4F202029142009000F0C180EB
:10549000FFE7089801680120B822C4F20202914295
:1054A000009000F0B680FFE708980168012040F204
:1054B0001042C4F202029142009000F0AA80FFE77D
:1054C00008980168012040F22842C4F20202914289
:1054D000009000F09E80FFE708980168012040F2EC
:1054E0004042C4F202029142009000F09280FFE735
:1054F00008980168012040F25842C4F20202914229
:10550000009000F08680FFE708980168012040F2D3
:105510007042C4F20202914200907AD0FFE70898EC
:105520000168012040F28842C4F2020291420090D8
:105530006FD0FFE708980168012040F2A042C4F252
:1055400002029142009064D0FFE7089801680120B0
:1055500040F2B842C4F202029142009059D0FFE7F3
:1055600008980168012045F20842C5F602029142FE
:1055700000904ED0FFE708980168012045F21C42D8
:10558000C5F602029142009043D0FFE708980168F7
:10559000012045F23042C5F602029142009038D017
:1055A000FFE708980168012045F24442C5F602026F
:1055B000914200902DD0FFE708980168012045F244
:1055C0005842C5F602029142009022D0FFE70898A7
:1055D0000168012045F26C42C5F60202914200903A
:1055E00017D0FFE708980168012045F28042C5F610
:1055F0000202914200900CD0FFE7089800684AF63A
:105600006C31CAF2FD710844B0FA80F04009009094
:10561000FFE70098C007A0B1FFE70898416E806ED1
:1056200048600898C06E58B1FFE70898C16E0868D6
:1056300020F4807008600898016F406F4860FFE7B1
:10564000FFE70899012081F83500FFE7089900205D
:1056500081F83400FFE7FFE700208DF82700FFE71F
:105660009DF827000AB080BD80B586B004900498EC
:1056700020B9FFE701208DF8170046E3049890F861
:105680003500022807D0FFE70499802048650120F3
:105690008DF8170039E30498016801201022C4F244
:1056A00002029142029000F0A380FFE70498016893
:1056B00001202822C4F202029142029000F0988058
:1056C000FFE70498016801204022C4F202029142DF
:1056D000029000F08D80FFE70498016801205822B5
:1056E000C4F202029142029000F08280FFE7049827
:1056F000016801207022C4F202029142029077D028
:10570000FFE70498016801208822C4F20202914256
:1057100002906DD0FFE7049801680120A022C4F236
:1057200002029142029063D0FFE7049801680120D1
:10573000B822C4F202029142029059D0FFE70498C5
:105740000168012040F21042C4F20202914202902C
:105750004ED0FFE704980168012040F22842C4F2CD
:1057600002029142029043D0FFE7049801680120B1
:1057700040F24042C4F202029142029038D0FFE768
:1057800004980168012040F25842C4F2020291429A
:1057900002902DD0FFE704980168012040F270428A
:1057A000C4F202029142029022D0FFE704980168FD
:1057B000012040F28842C4F202029142029017D0C6
:1057C000FFE704980168012040F2A042C4F20202FF
:1057D000914202900CD0FFE7049800684FF64831E0
:1057E000CBF6FD710844B0FA80F040090290FFE763
:1057F0000298C007002800F09D80FFE7049904206C
:1058000081F83500049800681021C4F20201884232
:1058100000F08180FFE7049800682821C4F20201AB
:10582000884278D0FFE7049800684021C4F2020162
:10583000884270D0FFE7049800685821C4F2020142
:10584000884268D0FFE7049800687021C4F2020122
:10585000884260D0FFE7049800688821C4F2020102
:10586000884258D0FFE704980068A021C4F20201E2
:10587000884250D0FFE704980068B821C4F20201C2
:10588000884248D0FFE70498006840F21041C4F213
:10589000020188423FD0FFE70498006840F22841A7
:1058A000C4F20201884236D0FFE70498006840F253
:1058B0004041C4F2020188422DD0FFE704980068FD
:1058C00040F25841C4F20201884224D0FFE7049814
:1058D000006840F27041C4F2020188421BD0FFE729
:1058E0000498006840F28841C4F20201884212D054
:1058F000FFE70498006840F2A041C4F20201884228
:1059000009D0FFE70498006840F2B841C4F20201F0
:10591000884207D1FFE704980168086820F0010079
:10592000086006E004980168086820F0010008603B
:10593000FFE7E5E104980168086820F00E000860C0
:10594000049800681021C4F20201884200F08180AE
:10595000FFE7049800682821C4F20201884278D049
:10596000FFE7049800684021C4F20201884270D029
:10597000FFE7049800685821C4F20201884268D009
:10598000FFE7049800687021C4F20201884260D0E9
:10599000FFE7049800688821C4F20201884258D0C9
:1059A000FFE704980068A021C4F20201884250D0A9
:1059B000FFE704980068B821C4F20201884248D089
:1059C000FFE70498006840F21041C4F202018842E7
:1059D0003FD0FFE70498006840F22841C4F202017A
:1059E000884236D0FFE70498006840F24041C4F294
:1059F000020188422DD0FFE70498006840F2584128
:105A0000C4F20201884224D0FFE70498006840F203
:105A10007041C4F2020188421BD0FFE7049800687D
:105A200040F28841C4F20201884212D0FFE7049894
:105A3000006840F2A041C4F20201884209D0FFE7A9
:105A40000498006840F2B841C4F20201884207D1CC
:105A5000FFE704980168086820F00100086006E08C
:105A600004980168086820F001000860FFE70498C6
:105A7000016801201022C4F202029142019000F05C
:105A80000381FFE70498016801202822C4F2020282
:105A90009142019000F0F880FFE70498016801202E
:105AA0004022C4F202029142019000F0ED80FFE733
:105AB0000498016801205822C4F202029142019028
:105AC00000F0E280FFE70498016801207022C4F230
:105AD00002029142019000F0D780FFE7049801682C
